:020000040000FA
:10000000701D2020D5000000D9000000DB0000009A
:1000100000000000000000000000000000000000E0
:10002000000000000000000000000000DD000000F3
:100030000000000000000000DF000000E100000000
:10004000E30000004D100000E300000089310000D3
:10005000E3000000E3000000E3000000E300000014
:1000600000000000E3000000E300000000000000CA
:1000700000000000B12F0000E52F0000E3000000A9
:10008000E3000000212F0000152F0000E300000016
:10009000E3000000E300000000000000000000009A
:1000A000E3000000E300000000000000000000008A
:1000B000E300000000000000E3000000E300000097
:1000C0000348854600F038FC00480047D935000059
:1000D000701D202003480047FEE7FEE7FEE7FEE72D
:1000E000FEE7FEE7C1000000D2B201E00270401C52
:1000F000491EFBD270470022F6E710B513460A46A8
:1001000004461946FFF7F0FF204610BD70B50646BD
:1001100003F004FE046805460A220021304600F080
:10012000FDFA2C6070BDF8B502464A40D40F42007B
:100130004B0052085B089A4202D20246084611461A
:100140004A0023D0C30D4A00DDB2120EAD1A202D95
:1001500035DA49020126490AF6058A19002C00D031
:10016000524220214F1B1146B9402A411018C20D9E
:100170009A4221D0002C17D0012D08DCDA05801A14
:10018000D20F8019D207DBB200F008FBF8BDDA0508
:10019000801A012340001B06C01880185A4280189C
:1001A000CA0F1043490007E04908C2071143DA05A6
:1001B000801A80194008801800F0E8FAF8BD610044
:1001C0000122511A001BF7E70122D2075140AAE78A
:1001D0000122D2075040A6E7024670B54A40D30F2D
:1001E000DB0740002DD04A002AD0010E140E000279
:1001F00012020919400A520A8418E50104465443C0
:10020000000A120A2E045043A4194219200CC543B7
:10021000AA18120C0125AD03521C521912047F3981
:10022000240400D0521C104301D44000491EC2B225
:100230000C06C0092018401C4008802A02D003E0A8
:10024000002070BD40084000002900DA002018435B
:1002500070BD0000F0B507460846584087B0C00F93
:10026000049048000E46590040084908BC1A8841CD
:1002700005D2384631461E4617460B460246580000
:10028000400810434CD0300D039040055900400DFC
:10029000490D0590401A0290402872DA1803012196
:1002A000000B09050843019004980092002805D02E
:1002B0000199524200208841009201900298402109
:1002C0000A1A0199009800F0F4F905460C466B46AD
:1002D00007CB00F00FFAC0197141039A0E0D0023ED
:1002E000D71756401A467A40164344D0049A002A3B
:1002F0002DD0029A012A039A15DC1205C01A9141E9
:1003000001263605001C7141D20F059ED2070093CD
:10031000019202962A46234600F086FA07B0F0BD05
:1003200038463146FAE71605224A0F46B218C01A77
:10033000B74101210905001C4F4100187F411146BA
:1003400018187941E20F10436D19644113E0E20778
:100350006D0815436408C2071443039A0126120569
:10036000C01A91413605001C7141CE074008304348
:100370004908C01851412A46234600F048FACDE703
:10038000FFE7049801224000C117121A00238B4195
:1003900004983146C417381AA141EEE730B401245D
:1003A000E407634030BC55E730B40124E407614002
:1003B00030BC4FE70000E0FFF0B51FB488B00B99E8
:1003C0000998002448400999C00F4900490809913B
:1003D000C0070B990090490049080B9109990898AA
:1003E000A64608431CD00B990A98084318D00998D0
:1003F00001244000420D4800410D099824050003E6
:10040000000B204309900B980003000B20430B9036
:1004100050181C494018002201901446104605E06F
:10042000002001460DB0F0BD032801DA034600E0CC
:1004300003239C46C11A0AAE0AE05F0008ADED5BDB
:100440004F00F75B7D430027AA187C41491C5B1EC7
:100450006145F2DD410004AB5A522104120C0A43FB
:10046000240C401C0828DFDB01980290009970469C
:1004700001910090059B049A0799069800F0D4F921
:10048000D0E700000DFCFFFFF0B50C465C4085B0E6
:10049000E40FE40703944C000026640859009446D6
:1004A000490802460296224321D062460A431ED0E2
:1004B0006200570D4A000E032303550D0124024626
:1004C0002C492405781B1B0B360B4018234326436D
:1004D000614600901C46501AB44103D30098401C5A
:1004E000009002E0921800985B41002803DA002097
:1004F000014605B0F0BD00200121090507468646EA
:1005000011E064461D46141BB54106D36546521BD7
:10051000B341744607430C43A646CD07400849083B
:10052000284392185B4105460D43EAD11046184313
:1005300013D06046194650407140084306D06046CB
:10054000101AB34106D20122002306E00022012343
:10055000DB0702E00122D2435310009874460105E4
:10056000381C6141029C039D0019694100F04FF95C
:10057000BFE70000FD0300000122D207002800DBD6
:10058000101A002900DB511A814201D20120704764
:10059000002070470122D207002800DB101A002932
:1005A00000DB511A814201D30120704700207047BF
:1005B0000122D207002800DB101A002900DB511AA3
:1005C000814201D90120704700207047C217C10F36
:1005D000504010B54018CA079623002100F0DEF8FD
:1005E00010BDC20F410040020123400ADB05D207C3
:1005F000090EC0187F2901DA00207047962903DC14
:100600009623591AC84001E096398840002AF4D050
:100610004042704770B50446002903D000202022D4
:10062000012310E0002801D00020C043C046C0468E
:100630000DE02546D5408D4205D30D469540641BFF
:100640001D46954040191546521E002DF1DC2146ED
:1006500070BDF0B51FB40646002082B005464024A8
:10066000019100901BE0019922460F46304600F0B0
:1006700030F8049A059B801A994110D31046194608
:10068000224600F016F8361A8F41019722460120C3
:100690000021009F00F00DF838184D4100902046D1
:1006A000641E0028DFDC019B00982946324607B013
:1006B000F0BD10B5202A04DB0146203A914000200D
:1006C00010BD914020239C1A0346E34019439040FB
:1006D00010BD10B5202A04DB0846203AD040002186
:1006E00010BD0B46D340D0402024A21A91400843AD
:1006F000194610BD10B5202A06DBCB170846203A54
:100700001041C1170B4306E00B461341D040202493
:10071000A21A91400843194610BD0000F7B5009C8D
:100720000F4600262578641C002D05D000F01CF92A
:100730000068405DC007F5D12B2D02D02D2D18D0BB
:10074000641E39462046029A00F012F9002F04D0A8
:100750003968A14201D1009939607105022400294C
:100760000BDA4042002803DD03F0D8FA0460A0074A
:10077000FEBD012080020643E3E70028F8DA03F01B
:10078000CDFA04600048FEBDFFFFFF7F002904DAB8
:10079000401C490001D140084000704770B400245B
:1007A000050C05D11024000402D1002921D0112408
:1007B000050E01D100020834050F01D10001241DEE
:1007C000850F01D18000A41C002801DB4000641CBF
:1007D000002908D020252E1B0D46F540A14000D051
:1007E00001212943084301061B1B000ADB1D02D51A
:1007F000002070BC7047DB05181880180029F8DA53
:10080000401C4900F5D170BC40084000704710B54D
:10081000002B08DA0024401C614192185B411A4306
:1008200001D14008400010BDF0B51FB482B00546AC
:100830000C0003D0084603F059FA02E003F056FA20
:1008400020300246009021462846FFF732FF049BE5
:10085000059A04460F4618431143084314D018461E
:1008600010431BD0009840210A1A18460599FFF73B
:1008700030FF05460E46009A05990498FFF719FFC8
:10088000084305D0012004E02046394607B0F0BDFA
:100890000020C11705430E432C43374300990E989F
:1008A0006305401A7905E40A00220C43FD0A0A3068
:1008B00002D500200146E9E70105101969410C9CA9
:1008C0000D9D00196941FFF7A2FFDFE74A00090308
:1008D0000123090B1B0519430A4B10B5520D9A420F
:1008E00002DA0020014610BD064B34339A4203DC85
:1008F0009A1AFFF7EEFE10BD034BD218FFF7D9FE90
:1009000010BD0000FF030000CDFBFFFF10B5002964
:1009100004DB0124E40740428C412146002B04DB28
:100920001C460123DB075242A341994200D1904269
:1009300010BD0000000000001CB5094800900948E7
:10094000019005460126009C05E0E36807CC33438F
:100950000C3C98471034AC42F7D3FFF7B5FB0000CE
:100960005461000074610000004870479446000024
:10097000F7B582B0029C00272078641C15460197C9
:10098000302802D0002D15D015E020780127641CF6
:10099000782804D0582802D0002D09D00BE0002D73
:1009A00001D0102D07D1002710252078641C02E00B
:1009B000082500E00A250026009610E0009901278E
:1009C00069430818020C294680B2714300908E18C2
:1009D0003804864201D3012001902078641C294606
:1009E00000F019F80028E9DA0398002805D0002F54
:1009F00001D0641E00E0029C04600198002806D02B
:100A000003F08CF902210160C81E05B0F0BD009909
:100A100030040843F9E73A2800D230382023024650
:100A20009A43412A01D310463738884201D3002027
:100A3000C043704770B5012803D0022804D10224B6
:100A400000E00446314D2C70002903D0012904D167
:100A5000002100E001212D4CA1702C4D6B72402132
:100A600069712A71110AE970190A2972190CE97160
:100A7000190EA971401E012801D80020A8726B2010
:100A800028730026EE723B4CA95D204600F0D4FA94
:100A9000761C0D2EF8D1052002F090FC70BDC046EA
:100AA00070B5012803D0022804D1022400E00446D6
:100AB000164D2C70002903D0012904D1002100E03B
:100AC0000121124CA170114D6B72402169712A7184
:100AD000110AE970190A2972190CE971190EA97124
:100AE000401E012801D80020A8726B202873002620
:100AF000EE72204CA95D204600F09EFA761C0D2E69
:100B0000F8D1052002F05AFC70BDC0460400202038
:100B100070B50446012803D0022C05D1144800E02A
:100B20001248052102F042FA052002F047FC012C90
:100B30000CD0022C14D100250E4C0F4E715D2046B6
:100B400000F07AFA6D1C052DF8D109E00025094C5A
:100B50000A4E715D204600F06FFA6D1C052DF8D12C
:100B60007D20C00002F02AFC70BDC046210020207C
:100B70001B00202000001040110020201600202023
:100B8000811E091F00BFFCD270470000B0B553683A
:100B900094681C4393892343146955691C43D38982
:100BA0002B431B0123430C01041909256D026351DA
:100BB000137852781A43BF231A408900401803491A
:100BC00044589C43A2184250B0BDC04610110000CA
:100BD00010B5002A0FD091235B01C3180020DC69F7
:100BE0002405240F05D00C5C1C60401C8242F6D109
:100BF000104680B210BD002080B210BD70B50A78DA
:100C00000C231A400124240305196E689E43B21870
:100C10006A604978072211400359934359180151DA
:100C200070BD0000F0B584B0012422022A4B19687F
:100C300003929143196049490D686D04FCD5457EC6
:100C400025409E69A64374199C612024045D0325F8
:100C50002C40DE69AE433419DC61204C2568052642
:100C60002660466A37681F6276685E6207262E40F5
:100C70002660C4697F252D02DE69AE436406640CDC
:100C80003419DC610768456882680092C6680269A9
:100C90000192426902929A69114C14403A07120B70
:100CA0002D03ADB2AA183243009D2D072D0D15431B
:100CB000019A1543029A1543007E2843094A0240CF
:100CC000101998611868039A104318600868800525
:100CD000FCD504B0F0BDC04608010B4000134040F5
:100CE0008D00F0FF72FF0F00F0B5124B1D46083D5E
:100CF0002E680124A6432E600326360330401F6869
:100D0000B743381818601868FF26B043C9B24018B6
:100D1000186028682043286018682107002A06D038
:100D2000084318600D480168C905FCD5F0BD88432B
:100D30001860F0BD10010B40074988600748026841
:100D40009202FCD5012212040B6813430B60016868
:100D5000C906FCD57047C04604010B4004020B4095
:100D6000B0B582B04A79002A25D0194A0C792123DE
:100D70001B01202C00D070338218002C00D1882356
:100D8000146C404D2C40E4181464546C2C40E3184F
:100D900053641368784C23401360536823405360B6
:100DA0000023136253628F23DB43146D1C401465D0
:100DB000546D1C4054650B796A4613718B795371DD
:100DC00009680091114600F005F802B0B0BDC046B8
:100DD00038180000F0B5664A8218294BC318087904
:100DE00020280DD000281DD10C68641E5460D56EDB
:100DF000244C25408835D5661646703688251DE07A
:100E00000C68641E5460D46E1E4D2C401E4EA419F6
:100E1000D466146F2C40A4191467012465071B4C79
:100E200016460BE00C6864085460D66E154C2640DC
:100E30000525ED017619D6661646703637682740C7
:100E40002F433760D46A4C4D2C40D462146B2C4035
:100E500014630024D46414658F24E443D56F2540C3
:100E6000D5671D6825401D6049790143BD200840B4
:100E70001168074B0B40C018801C1060F0BDC046C5
:100E80008418000024F93FF001040000FFFFFFCFA9
:100E90004000FFCFB0B5364A80184A6842600A78F1
:100EA000222A57D8930001A4E3589F464B0F000015
:100EB000550F00004B0F0000550F0000550F0000AC
:100EC000550F0000550F0000550F0000550F000092
:100ED000550F0000550F0000550F0000550F000082
:100EE000550F0000550F0000550F0000390F00008E
:100EF000550F0000390F0000550F0000550F00007E
:100F0000550F0000550F0000550F0000550F000051
:100F1000550F0000550F0000550F0000550F000041
:100F2000550F0000550F0000550F0000390F00004D
:100F3000550F0000390F000003231B0704689C4372
:100F400001235B07E318036004E003231B07046825
:100F50009C4304600B69C360CB68064C1C40C36AA9
:100F6000054D1D402B19C362097A11430160B0BDC4
:100F700004180000777702008888FDFF10B507236A
:100F80009B04194092008018024A84589C436118BF
:100F9000815010BD3018000010B5029CA40000194B
:100FA00011431943014A815010BDC046501800003A
:100FB00092008018014A81507047C0461018000006
:100FC00010B50122120383180C789C604B78835073
:100FD0008978014A815010BD0C110000B0B5112272
:100FE000120283580124A34383508B780C881C433E
:100FF0008B882343094C1C408358094D1D402B19F5
:1010000083508B79CC791C43097A21437E23194084
:10101000801842689A4351184160B0BD18670000BB
:10102000E798FDFF10B50122120383180C789C602D
:101030004978815010BD0000034A801802681206EA
:10104000FCD481617047C0460811000070B51B4890
:10105000014610390A681A4913460B40194C23609F
:101060009B0C194B0AD1540610D50124A5041E6807
:10107000164C24682E4206D0641E05E01D68134CF1
:1010800024686D06F8D5641C104D2C60140608D435
:10109000D2050ED51B680E4A12681B0606D5521ED5
:1010A00005E01B680A4A1268DB05F8D5521C084B9C
:1010B0001A6002680A43026070BDC04648300A40A8
:1010C000C0010400E407202080330A40940020205F
:1010D00098002020F0B581B00446C06821692061E5
:1010E000616101204006F9490A6892011BD5F84A5E
:1010F00012681378002B16D15378002B13D19378F4
:10110000002B10D1D378002B0DD11379002B0AD1ED
:101110005379002B07D19379002B04D1D279002A7F
:1011200001D1EC4AE2600A6802421AD0E84A126829
:101130001378002B15D05378002B12D19378002B05
:101140000FD1D378002B0CD11379002B09D153790F
:10115000002B06D19379002B03D1D279002A00D13C
:10116000FEE10A6802421AD1D94A12681378002BAC
:1011700015D05378002B12D19378002B0FD1D37850
:10118000002B0CD11379002B09D15379002B06D1F8
:101190009379002B03D1D279002A00D1E2E10A68C9
:1011A00002421AD1CA4A12681378002B15D053781C
:1011B000002B12D09378002B0FD1D378002B0CD1B9
:1011C0001379002B09D15379002B06D19379002B89
:1011D00003D1D279002A00D1C0E10A68024205D1C8
:1011E000F84A12681378002B00D1D6E00A68024250
:1011F00005D1F44A12681378002B00D1EBE00A689D
:10120000024208D1EF4A12681378002B03D15378B9
:10121000002B00D1FDE00A68024208D1E94A1268B9
:101220001378002B03D15378002B00D10BE10A680F
:1012300002420BD1E34A12681378002B06D153788F
:10124000002B03D19378002B00D116E10A680242EB
:101250000ED1DC4A12681378002B09D15378002B89
:1012600006D19378002B03D1D378002B00D11AE15B
:101270000A6802420ED1D34A12681378002B09D1B2
:101280005378002B06D19378002B03D1D378002B11
:1012900000D121E10A68024211D1CA4A12681378CA
:1012A000002B0CD15378002B09D19378002B06D159
:1012B000D378002B03D11379002B00D11EE10A68EB
:1012C000024211D1BF4A12681378002B0CD1537817
:1012D000002B09D19378002B06D1D378002B03D1B2
:1012E0001379002B00D117E10A68024214D1B54AE4
:1012F00012681378002B0FD15378002B0CD1937800
:10130000002B09D1D378002B06D11379002B03D100
:101310005379002B00D10DE10A68024214D1A94A89
:1013200012681378002B0FD15378002B0CD19378CF
:10133000002B09D1D378002B06D11379002B03D1D0
:101340005379002B00D1FFE00968014200D00BE186
:101350009C4800680178002900D005E14178002907
:1013600000D001E18178002900D0FDE0C17800299A
:1013700000D0F9E00179002900D0F5E04179002999
:1013800000D0F1E08179002900D0EDE0C07900289B
:1013900000D1E9E08320C005E5E05378002B00D1BF
:1013A00024E79378002B00D020E7D378002B00D0DF
:1013B0001CE71379002B00D018E75379002B00D0DD
:1013C00014E79379002B00D010E7D279002A00D0DF
:1013D0000CE78048C7E05378002B00D10FE79378E3
:1013E000002B00D10BE7D378002B00D007E713794F
:1013F000002B00D003E75379002B00D0FFE6937950
:10140000002B00D0FBE6D279002A00D0F7E6724824
:10141000A9E09378002B00D1FDE6D378002B00D013
:10142000F9E61379002B00D0F5E65379002B00D0B4
:10143000F1E69379002B00D0EDE6D279002A00D0B6
:10144000E9E666488FE09378002B00D1EFE6D37889
:10145000002B00D1EBE61379002B00D0E7E653799F
:10146000002B00D0E3E69379002B00D0DFE6D279A1
:10147000002A00D0DBE65A4875E0D378002B00D173
:10148000E4E61379002B00D0E0E65379002B00D07E
:10149000DCE69379002B00D0D8E6D279002A00D080
:1014A000D4E650485FE01379002B00D1E0E6537991
:1014B000002B00D0DCE69379002B00D0D8E6D2795F
:1014C000002A00D0D4E648484DE0C04680130A40C8
:1014D00090002020000098C11379002B00D1D9E69C
:1014E0005379002B00D1D5E69379002B00D0D1E6BB
:1014F000D279002A00D0CDE63C4834E05379002B65
:1015000000D1DCE69379002B00D0D8E6D279002A0E
:1015100000D0D4E6364826E05379002B00D1E3E62C
:101520009379002B00D1DFE6D279002A00D0DBE6E8
:10153000304818E09379002B00D1EDE6D279002AEB
:1015400000D0E9E62C480EE09379002B00D1FBE6B1
:10155000D279002A00D1F7E6284804E01C4802E0CE
:10156000194800E01948E060E66861683046FEF717
:1015700033FE0090E061256930462946FEF724FEDF
:1015800001462068FEF728FE0746A0612846294646
:10159000FEF7C9FD01463046FEF716FE6169FEF70B
:1015A000C2FD0146A068FEF717FE054620623846D8
:1015B0000099FEF7B8FD2946FEF7B5FD606201B05F
:1015C000F0BDC04690002020000088C1000080C10E
:1015D000000070C1000040C1000030C1000010C117
:1015E0000000A0C0000040C0000040400000A0403B
:1015F0000000E04000001041000030410000404188
:10160000F0B581B00126B706104D2F6102242046A7
:1016100001F002FF2F60204601F0FEFE7602002757
:101620002E610B4800688004C00F0A49C855022487
:10163000204601F0F1FE2E60204601F0EDFE7F1CF9
:10164000082FEDD1034801B0F0BDC04690320A40EA
:1016500080330A409C00202080B5022804D88000F6
:1016600002A1085802F022F880BDC0464761000080
:101670004B6100004F610000F0B583B00020E94DE0
:1016800029184978402903D0401C6428F8D102E089
:101690004D21890068504D2080002A58622A0FDCB5
:1016A0006321891A5219521C002302E05B1C9942E3
:1016B00006D0D45C232CF9D10524A4012B51F5E7E5
:1016C000052189016C58012C0ADB0022AB182C582B
:1016D0001C19A478C9269C556C58521CA242F5DBF3
:1016E000022C21DB611E00202A18C923D25C5E2A4D
:1016F00003D0401C8142F7D116E04F218900685089
:10170000002809D01B21090169180A46E73A127816
:101710000A70491C401EF8D11B2000012818FEF752
:10172000F5FC2721C90068502720C0002858002157
:10173000CE43022830D0012800D0A8E00190012C2F
:1017400059DB5120800002902F58334603E05B1C88
:10175000491CA1424FD06818C922805C232805D0BB
:101760005E28F4D1029829500F46F0E7C81B2922C1
:10177000D200A8500228EADBD81B012800DC012097
:1017800053229200AA18D519823D2D781570521C4B
:10179000401EF8D1DD4DDAE70190012C66DB5120C7
:1017A000800002902F580022334603E05B1C521C3D
:1017B000A2425BD0A818C921405C232805D05E282E
:1017C000F4D102982A501746F0E7D01B2921C9000E
:1017D00068500228EADBD81B012800DC01205321D5
:1017E00089006918CD19823D2D780D70491C401E65
:1017F000F8D1C64DDAE7B11E364A37486B18FF27D5
:101800003D4650355D5D3C46C8341D55A9246400F5
:101810001C5D3D46DC355C553C465C341C5D294D09
:101820005C55AF2464001C5D274D5C553C4662341A
:101830001C5D264D5C555924A4001C5D244D5C554F
:101840003C4668341C5D9C547B24A4001C1956370C
:10185000DD5DE5702B25ED005D5DE575E24DB524A0
:1018600064001C5D1C54491CC8D30DE0532080004B
:101870002818032102787823C25402467832C378AC
:101880001375401C491EF5D1019801F0DDFD1B20A8
:10189000000128183C21FEF72EFC681C6324214619
:1018A000FEF729FC2846C9302146FEF724FC623E9B
:1018B000A819FF21B03100224254761CF8D303B09E
:1018C000F0BDC046170200002B0200003F020000DE
:1018D00053020000670200007B020000B0B582B036
:1018E00014480068012820D1114C208803281CD0FE
:1018F000114D11E000F01CFD00202A5E0120102196
:10190000009101902D210A2300F038FE142001F0EF
:101910006BFD2088032808D001F098FE2080022863
:10192000E8D12888401C2880E4E702B0B0BDC0465A
:101930004C0D2020A40020204E0D2020014808211D
:1019400001607047A0320A4080B50346064A01286C
:1019500004DB02200021FFF7A3F880BD5B420220D8
:101960000121FFF79DF880BDB80B00004B208000DF
:101970009F4900220A500A624A620A604A60704720
:10198000F0B581B0F320800097490858002846D070
:10199000FEF71CFE2449FEF7C6FB0546944FBE68C1
:1019A0003146FEF711FC0446D0203C503D60BD603E
:1019B000FE601E492846FEF7FBFD002807D11C49A2
:1019C0002846FEF7E7FD002801D0002017E0DC20C4
:1019D000395818484068FEF7FFFB0646154800686E
:1019E0002946FEF7F9FB3146FEF79DFB05461148F7
:1019F00080682146FEF7F0FB2946FEF794FB38622B
:101A0000FEF7EFFD03467D20C200012B02DB022022
:101A1000002102E05B4202200121FFF70BF801B038
:101A2000F0BDC046140820200000CDC30000C04017
:101A30000000C0C028002020F0B581B03D2000018A
:101A40006949085800285ED0FEF7C0FD01463048BD
:101A5000FEF7BAFB0546664E77693946FEF7B4FBDA
:101A6000D42100907050E02431592846FEF75BFBEA
:101A7000064660492846FEF79BFD002800D1064631
:101A80005D492846FEF778FD002800D106465848F3
:101A9000065104464560456187614120010628469C
:101AA000FEF786FD002808D1C12001062846FEF772
:101AB00071FD002801D0002015E0504C61683046CF
:101AC000FEF78AFB064620682946FEF785FB31466D
:101AD000FEF729FB0546A068454C0099FEF77CFB04
:101AE0002946FEF720FB6062FEF77BFD03460128D6
:101AF00003DB01206422014603E05B420120002158
:101B00006422FEF797FF01B0F0BDC0461408202004
:101B100000005943F0B581B03D200001324908581A
:101B200000285ED0FEF752FD01463048FEF74CFB20
:101B300005462F4E77693946FEF746FBD4210090C3
:101B40007050E02431592846FEF7EDFA064629493F
:101B50002846FEF72DFD002800D1064626492846D6
:101B6000FEF70AFD002800D106462148065104462A
:101B7000456045618761412001062846FEF718FD52
:101B8000002808D1C12001062846FEF703FD0028E1
:101B900001D0002015E0194C61683046FEF71CFBAF
:101BA000064620682946FEF717FB3146FEF7BBFACA
:101BB0000546A0680E4C0099FEF70EFB2946FEF77D
:101BC000B2FA6062FEF70DFD0346012803DB012037
:101BD0006422014603E05B42012000216422FEF7FB
:101BE00029FF01B0F0BDC0461408202000006B435F
:101BF0001C0C2020000020C10000204150002020AB
:101C000080B584B0012810D0002827D16946002073
:101C100008710090A620487040480222FEF7D8FFC5
:101C20004A4881688906FCD50DE002A900200871A8
:101C30000290A720487039480222FEF7C9FF4348A6
:101C400081688906FCD50168354A0A40783202600D
:101C50004168344A0A4034495118416004B080BD9B
:101C6000F0B583B0012827D0002854D101A900265F
:101C70000E710196C820487028480222FEF7A8FF7E
:101C8000324DA8688006FCD52868254F384078304A
:101C90002860686823490840234C0019686001A93E
:101CA0000E710196A120487002221C48FEF790FF99
:101CB000A8688006FCD524E001A900260E710196D3
:101CC000C020487015480222FEF782FF1F4DA86809
:101CD0008006FCD52868124F384078302860686844
:101CE00010490840104C0019686001A90E71019656
:101CF000A020487002220948FEF76AFFA868800603
:101D0000FCD5286838407821014329606868054976
:101D100008402043686003B0F0BDC04600000F409B
:101D200000F8FFFFF8FF00F007000200F0B585B0F3
:101D300003A900270F710397AE20487002480222C2
:101D4000FEF746FF014E03E000000F4010120F4067
:101D5000B0688006FCD530680849084078303060AB
:101D600070680749084007494018706003A90F715F
:101D7000039702220448FEF72BFF07E000F8FFFF5D
:101D8000F8FF00F00700020000000F40B068800676
:101D9000FCD530680A490840782102910843306038
:101DA00070680849084008490843706003A90F712A
:101DB00003971020487002220448FEF709FF07E04D
:101DC00000F8FFFFF8FF00F00700020000000F40DE
:101DD000B0688006FCD530680A490840029908437B
:101DE000306070680849084008490843706003A9DA
:101DF0000F71039740254D7002220548FEF7E8FE5B
:101E000008E0C04600F8FFFFF8FF00F007000200FE
:101E100000000F40B0688006FCD530680A490840D1
:101E2000029908433060706808490840084908432F
:101E3000706003A90F710397812048700222054842
:101E4000FEF7C6FE08E0C04600F8FFFFF8FF00F00E
:101E50000700020000000F40B0688006FCD5306823
:101E60000A490840029908433060706808490840F0
:101E700008490843706003A90F710397CF20487089
:101E800002220548FEF7A4FE08E0C04600F8FFFF66
:101E9000F8FF00F00700020000000F40B068800665
:101EA000FCD530680A4908400299084330607068E0
:101EB0000849084008490843706003A90F71039757
:101EC000A120487002220548FEF782FE08E0C046C5
:101ED00000F8FFFFF8FF00F00700020000000F40CD
:101EE000B0688006FCD530680A490840029908436A
:101EF000306070680849084008490843706003A9C9
:101F00000F710397C820487002220548FEF760FE53
:101F100008E0C04600F8FFFFF8FF00F007000200ED
:101F200000000F40B0688006FCD53068FD490840CD
:101F30000299084330607068FB490840FB49084338
:101F4000706003A90F710397A620019048700222C8
:101F5000F348FEF73DFEB0688006FCD53068F149D5
:101F600008400299084330607068EF490840EF4923
:101F70000843706003A90F710397A82048700222DC
:101F8000E748FEF725FEB0688006FCD53068E549D5
:101F900008400299084330607068E3490840E3490B
:101FA0000843706003A90F7103973F204870022215
:101FB000DB48FEF70DFEB0688006FCD53068D949D5
:101FC00008400299084330607068D7490840D749F3
:101FD0000843706003A90F710397D3204870022251
:101FE000CF48FEF7F5FDB0688006FCD53068CD49D6
:101FF00008400299084330607068CB490840CB49DB
:102000000843706003A90F7103970222C448FEF7CA
:10201000DFFDB0688006FCD53068C24908400299EF
:10202000084330607068C0490840C0490843706088
:1020300003A90F710397D52048700222B848FEF714
:10204000C7FDB0688006FCD53068B64908400299E3
:10205000084330607068B4490840FC490843706028
:1020600003A90F71039780244C700222F848FEF7F1
:10207000AFFDB0688006FCD53068F8490840029989
:10208000084330607068F4490840F04908437060C4
:1020900003A90F710397D92048700222EC48FEF77C
:1020A00097FDB0688006FCD53068EC49084002997D
:1020B000084330607068E8490840E44908437060AC
:1020C00003A90F710397F12048700222E048FEF740
:1020D0007FFDB0688006FCD53068E0490840029971
:1020E000084330607068DC490840D8490843706094
:1020F00003A90F710397DA2048700222D448FEF733
:1021000067FDB0688006FCD53068D4490840029964
:10211000084330607068D0490840CC49084370607B
:1021200003A90F710397122048700222C848FEF7D6
:102130004FFDB0688006FCD53068C8490840029958
:10214000084330607068C4490840C0490843706063
:1021500003A90F710397DB2048700222BC48FEF7E9
:1021600037FDB0688006FCD53068BC49084002994C
:10217000084330607068B8490840B449084370604B
:1021800003A90F7103974D700222B148FEF720FD9D
:10219000B0688006FCD53068B04908400299084311
:1021A00030607068AC490840A8490843706003A9D2
:1021B0000F710397202048700225A5482A46FEF794
:1021C00007FDB0688006FCD53068A4490840029934
:1021D000084330607068A04908409C49084370601B
:1021E00003A90F7103974D7099482A46FEF7F0FC3A
:1021F000B0688006FCD530689849084002990843C9
:10220000306070689449084090490843706003A9A1
:102210000F7103978D20487002228D48FEF7D8FC7D
:10222000B0688006FCD530688C49084002990843A4
:10223000306070688849084084490843706003A989
:102240000F7103971420487002228148FEF7C0FCEA
:10225000B0688006FCD53068804908400299084380
:10226000306070687C49084078490843706003A971
:102270000F710397A420487002227548FEF7A8FC4E
:10228000B0688006FCD5306874490840029908435C
:1022900030607068704908406C490843706003A959
:1022A0000F7103970198487002226948FEF790FC6D
:1022B000B0688006FCD53068684908400299084338
:1022C0003060706864490840604908437060AA48FB
:1022D0000146224600250D700831521EFAD1401CDD
:1022E0007F1C082FF4D100F023F803A90D7103958A
:1022F000AF20487002225648FEF76AFCB06880069C
:10230000FCD5306855490840029908433060706830
:10231000514908404D490843706005B0F0BDC046C2
:1023200000000F4000F8FFFFF8FF00F00700020078
:10233000F0B585B00020474F0190024603A90198EF
:1023400008710390029210465038487002224048AB
:10235000FEF73EFCB8688006FCD538683F49084067
:1023600078252843386078683B4908403749084356
:10237000786003A900240C71039402223448FEF70C
:1023800027FCB8688006FCD53868344908402843E3
:1023900038607868304908402C490843786003A9C0
:1023A0000C7103941020487002222948FEF710FC9B
:1023B000B8688006FCD5386828490840284338604A
:1023C00078682549084021490843786003A90C71C1
:1023D00003942348088002221D48FEF7F9FBB868E1
:1023E0008006FCD538681D49084028433860786865
:1023F000194908401549084378602646029AF000BA
:102400005D490818805C03A90C7103944870402052
:1024100008700222F048FEF7DBFBB8688006FCD5A6
:1024200038680E4908402843386078680A490840EF
:10243000064908437860761C802E029ADFD1521C30
:10244000082A00D07AE705B0F0BDC04607000200B8
:1024500000000F4010120F40F8FF00F000F8FFFFDF
:1024600040400000F0B58AB006910590082B03D1DA
:102470000624002C0AD175E05907D808002900D09D
:10248000401C59084143CCB2002C6BD00F980990E6
:1024900058080290203AD0B200250190000133493B
:1024A00008180090059A0493039404E00246089DDE
:1024B0006D1CA54256D0082B089504D10620019921
:1024C00048432C490EE0182B08D0102B48D00C2B79
:1024D00048D10C2001994843254903E02420019963
:1024E00048432149081840190792D6B204780023BE
:1024F00006990DE0099A002A16D0F2001E4DAA187E
:10250000D55D9D43D555431C491C6408072811D24D
:10251000184607270F400123BB40CFB2FF08E20750
:10252000E8D0099A002AE8D0F200134DAA18D55D28
:102530001D43E7E70798401C049B082B039CB5D07C
:10254000C1B2059A891A029A9142089D02D1069A4F
:1025500008320692029A9142059AA9D00246A7E74C
:102560000098C0E70AB0F0BD24530000344D0000CD
:10257000C048000098460000AC002020F0B585B0AF
:1025800002AC07C4002B36D01C460A9D6808082DF3
:1025900000D1801C01900B9F002610E00097302096
:1025A0000143CAB20198704302994018C0B203991E
:1025B0002B46FFF757FF761CF0B2A0421BD2F04328
:1025C0000019010606D001210A225143401E0206CD
:1025D000FAD100E001210498FEF71CF80A21FEF769
:1025E00019F80029DAD10097019870430299401830
:1025F000C0B23022DBE705B0F0BD000080B5034873
:102600000021034AFEF7C2FA80BDC04600A0424046
:102610008060000080B5FFF7F1FF80BDF0B581B0AC
:102620004A4C0020E06120628420A06348491020C9
:1026300000900860474D88226A6501221606464BC5
:102640001E608227276696020E606766D6020E60BD
:1026500087262E65D6051E608626EE613F48064613
:10266000813E1E60861C2660E66056062168314366
:102670002160E1683143E160A764411CE164AF6619
:10268000C61CAE60AF61E1633549E9608127A7668A
:1026900028616861E8666863E86220656065A06536
:1026A0002761EF64EF632F63A0626062A0606864DB
:1026B0002864A863E865A865E066E7652F66606042
:1026C000211F0F60214608390F6027646764676720
:1026D000276367636F60AF6468662860A862184606
:1026E000303820490160184640381F4901601F48B2
:1026F000186090071E490B6803430B60D0031D4907
:102700000A6A02430A620A6802430A60104A1046D3
:10271000303819490160104640381849016018489E
:1027200010601520000317490A6802430A6008690F
:10273000009A104308611448016A144A1143016267
:1027400001681143016001B0F0BDC0460C804240F9
:10275000D0320A4084804240D0120A4081000400F6
:102760008100020004430000031000000753000032
:1027700090130A4028100A40000218050C908000AF
:102780000C92980590330A4028300A40C00104009A
:1027900080B511481149FEF731FA03204102104873
:1027A00002680A43026001210A02036813430360BE
:1027B000002242614162826B07239A4382631A02BC
:1027C000836B93438363826A042313438362826A25
:1027D0000A43826280BDC04600000F40986000003E
:1027E00000120F40F0B581B0194C1A492046FEF78F
:1027F000E7FB19492046FEF7EDFA00250095102663
:102800002046294632462B46FEF7C6FB204629467F
:102810002A46FEF7B3FB504920462A46FEF7C8FB7E
:10282000012700972046294632462B46FEF7B4FB87
:10283000204629463A46FEF7A1FB204646493A463D
:10284000FEF7B6FB054887600321016001B0F0BDCB
:1028500000A08640B4600000B860000000B186406F
:10286000F0B581B0194C1A492046FEF7A9FB194969
:102870002046FEF7AFFA002500951026204629468F
:1028800032462B46FEF788FB204629462A46FEF7AD
:1028900075FB314920462A46FEF78AFB012700973F
:1028A0002046294632462B46FEF776FB204629462F
:1028B0003A46FEF763FB204627493A46FEF778FB87
:1028C000054887600321016001B0F0BD0040084069
:1028D000A8600000AC60000000510840F0B581B075
:1028E000194C1A492046FEF76BFB19492046FEF7A2
:1028F00037FA0025009510262046294632462B46F9
:10290000FEF74AFB204629462A46FEF737FB1149C7
:1029100020462A46FEF74CFB012700972046294611
:1029200032462B46FEF738FB204629463A46FEF74C
:1029300025FB094920463A46FEF73AFB07488760DF
:102940000321016001B0F0BD002086409A600000C4
:10295000A0600000102700008813000000318640AE
:1029600070B51A48002404600F200002184D296831
:10297000814301267002081828600320C1432A1FE2
:1029800013680B4013606968B143696031026A687B
:102990008A436A6000030A212246FEF7A5F90D4822
:1029A000FEF740F928681021014320208143296067
:1029B00030032968014329602046FEF7BDF9FF2056
:1029C00000029C490A6882430A6070BD08030B40FC
:1029D00004010B40C06000000548042101604F2144
:1029E000416000218160016805220A43026070474E
:1029F00010E000E010B50B4C0B492046FEF7E0FA62
:102A00000A492046FEF746FA0948016801221143A7
:102A10000160FF20000418490B6883430B600548E0
:102A2000026010BD00008640E8600000EC6000001D
:102A3000281086400811864010B50B4C0B492046E3
:102A4000FEF7BEFA0A492046FEF724FA0948016853
:102A5000012211430160FF20000207490B688343F4
:102A60000B600648026010BD0080864000610000D7
:102A7000046100002890864010E400E00891864040
:102A8000B0B5214C21492046FEF7CCFA204920461A
:102A9000FEF7A4FA0322D1031E4803688B430360A8
:102AA0000169624B0B40991C016141690B230B4387
:102AB00034218B434361436801210B4044688C43BC
:102AC000E31843608B02144C25681D432560FF23E7
:102AD0001B06374C25689D439207AA1822604A04BA
:102AE000036813430360C2682023134350229343B7
:102AF000C360C2680223134305229343C360026884
:102B00000A430260B0BDC04600801040186100005A
:102B10001A6100000091104028901040B0B51F4C81
:102B20001F492046FEF77EFA1E492046FEF756FA58
:102B30000320C1031C4802688A43026001693B4AC2
:102B40001140891C016141690B230B4334218B43E4
:102B50004361436801210B4044688C43E3184360A0
:102B600011231B03114C25681D432560FF32104BB8
:102B70001D6815401D60CA0222664A04036813439B
:102B80000360C26870231343C360C2680A4306230C
:102B90009A43C26002680A430260B0BD0000104060
:102BA0002461000026610000001110402810104030
:102BB0000CE400E010B5194C19492046FEF732FA32
:102BC00018492046FEF70AFA0320C1031648026896
:102BD0008A4302600169154A0A40911C01614169FA
:102BE0000B220A4334218A434261426801210A4090
:102BF00043688B439A1842608A020D4B1C68144349
:102C00001C60FF2212060B4B1C6894438A07A21813
:102C10001A6002680A43026010BDC04600005040BE
:102C20003061000032610000001150400000FFFFE1
:102C30002810504000E400E080B500F033F8FFF7C2
:102C4000EDFCFFF78DFEFFF749FEFFF709FEFFF7EA
:102C5000C9FDFFF7CFFEFFF7EFFEFFF799FDFFF786
:102C60000FFFFFF7A7FFFFF759FFFFF7D3FCFFF7B1
:102C7000B3FE7420064900220A54B821054B5A5469
:102C8000054B5A5405490A542C2005490A5480BD65
:102C9000080620204C052020800620203C0720200C
:102CA000B4072020F0B581B01648174A4260174893
:102CB0004260174842601748426017484260174E0A
:102CC0007260174F7A60174C6260174B5A60174951
:102CD0004A6017484260174A0A4D2A600B4D2A6025
:102CE0000B4D2A600B4D2A600B4D2A6032603A6012
:102CF00022601A600A6002601020FDF741FF01B0F7
:102D0000F0BDC04600080A40030000B100280A4098
:102D1000002886400048084000A8864000088640F9
:102D20000088864000080F4000881040000850408E
:102D30000008104001000026F0B581B00C460127C4
:102D40003A061949194E012803DB04230B6032614E
:102D500006E0326004220A611549884200DC084618
:102D60001449884200DB0846C1174840411A124DF9
:102D700000222846FEF71CF9F8043905012C09DB6E
:102D8000316030610B48844200DB0446E017444068
:102D9000211A02E030603161614201222846FEF7CB
:102DA00007F901B0F0BDC04690120A4090320A40C7
:102DB00030F8FFFF7017000000208640FEF7BEFDD0
:102DC000514E294F07E0FEF71BFC386000F05AFD1A
:102DD000142000F009FBF320840030590028F2D0C1
:102DE0003D20050170590028EDD04B2080001D4981
:102DF00008580028E7D1FEF71FFEFEF7C1FD725903
:102E00003159FF23A033414800F006FADBE7C04602
:102E1000FEF794FD3C4E144F07E0FEF7F1FB3860DF
:102E200000F03EFE142000F0DFFAF3208400305959
:102E30000028F2D03D20050170590028EDD04B202C
:102E40008000084908580028E7D1FEF7F5FDFEF795
:102E500097FD72593159FF23A0332C4800F0DCF95B
:102E6000DBE7C0461C0C2020900020200220FDF74C
:102E70004FFEE74D264EF3208700E8590028FAD090
:102E80003D20040128590028F5D0FEF743FEFEF747
:102E900077FD2A59E959FF23A0331C4800F0BCF9FB
:102EA000E85980190A28E6D82859CF28E3DBE32817
:102EB000E1DCFEF743FDDEE7D54D154E134C02E095
:102EC0000A2000F07BFAF3208700E85900280CD094
:102ED000FEF720FEFEF754FD3D2000012A58E95977
:102EE000FF23A033204600F097F9E85980191428F1
:102EF000E6D83D2000012858CF28E1DBE328DFDCBD
:102F0000FEF71CFDDCE7C046140820203C610000F1
:102F100066FEFFFF014800687047C04620108640EB
:102F200010B50F4C2068C0B2012818D10D480168B7
:102F300001290DD10C490A68531C0B60A5235B00C5
:102F40009A4205DB094A0123138000220A600260CD
:102F5000C748FEF7BFF8064908600120A06210BD0F
:102F6000209086405C0D2020600D202080002020D5
:102F7000640D2020B0B50A25284600F01FFA094844
:102F80000524214600F012F8204600F017FA2846E2
:102F900000F014FA0448214600F008F8204600F03A
:102FA0000DFAB0BD1B00202021002020704700003A
:102FB00008480068C0B20D2803D0112804D1074882
:102FC00000E0054801210170012040030449086028
:102FD0000860704720101040270020204005202066
:102FE00080E200E0F0B585B0554A11785548006898
:102FF000C0B2022911D0012907D0002900D099E0E0
:10300000552800D096E0012097E0532800D093E0A7
:103010004D480021017002208FE04B4A13784B4944
:10302000C854581C1070C0B2092800D082E00E7835
:10303000474806704C784748047088780390464AA1
:103040001070C878454B18700A790492444B1A7076
:103050004A79444B1A708B79434F3B70CF79434D7B
:103060002F70097A424D297002963519039EAD19C9
:1030700001902D181046049AAD182D18EB18DB1985
:10308000583BDBB28B4252D1254600900198010299
:103090008819FDF79BFA0721CE063146FDF79CF80B
:1030A000344C2146FDF798F807462146FDF780FA93
:1030B000039031493846FDF736F80399002900D1CD
:1030C00038462E490860280202994018FDF77EFA1A
:1030D00003963146FDF780F82146FDF77DF8074657
:1030E0002146FDF765FA064638462349FDF71BF8E9
:1030F000002E049D00D13846214908600098000246
:103100004019FDF763FA0399FDF766F82146FDF7CC
:1031100063F805462146FDF74BFA06462846164950
:10312000FDF701F8002E00D128461649086000205E
:103130000349087005B0F0BD0020107005B0F0BD67
:103140003E052020243110404A052020500D20202B
:103150003D0520203C052020310520203005202081
:103160004905202048052020420520204105202037
:103170003F052020000034430000B4C32C0520206C
:103180003805202044052020B0B520480068C0B292
:103190000B2839D1132001011D4842581D4B1B68D3
:1031A000451CAB544258AC5C0378402C06D0002B35
:1031B00004D1AA18002313704350B0BD402C06D18F
:1031C000002B04D1521C425001210170B0BD5E2C75
:1031D00004D0012B02D1521C4250B0BD5E2C06D14E
:1031E000012B04D1521C425002210170B0BD232C8E
:1031F00001D0022BEFD0232C06D1022B04D10022C8
:1032000042500270FEF738FAB0BDC0462010504060
:10321000140820202411504083B070B5A1B004469A
:1032200025A80EC06D46802628463146FCF763FF70
:1032300025AB209328463146224600F03FFD00286A
:1032400009D004466E46064D31782846FDF7F4FE57
:10325000761C641EF8D121B070BC01BC03B00047DD
:103260000080104002480021024A06C001607047F9
:10327000E80720209A99193F80B5FFF7DDFC80BD53
:10328000F0B581B00124274D2868000407D4E60377
:10329000142000F0A9F828683042FCD039E0260458
:1032A0002868C00307D4142000F09EF82868304234
:1032B000FCD003242DE0E7062868000107D4142081
:1032C00000F092F828683842FCD0022421E0164D24
:1032D0002868384207D1142000F086F82868384260
:1032E000FCD0042415E02868304207D1142000F0F7
:1032F0007BF828683042FCD005240AE02868800367
:103300000CD46604142000F06FF8286806243042BC
:10331000FBD0142000F068F80448047003480078DB
:1033200001B0F0BD80130A4080330A40180C202001
:1033300070B582B0FFF7A4FF1D4C2060FEF760F966
:103340001C4908602068022801D1FFF761FD206850
:10335000032801D100F0BAF92068042801D1FFF751
:10336000ABFD2068052801D1FFF780FD2068062805
:1033700001D1FFF723FDFEF7B1FAFEF7D9FF22686E
:1033800001241026009601941E210A2520462B4672
:10339000FFF7F4F808480268009601942D212046B2
:1033A0002B46FFF7EBF8142000F01EF802B070BDBA
:1033B000A400202090002020600D2020B0B51549E9
:1033C000414320480368262206E0E41A051F2D68C1
:1033D0006419A2188A4206D21C4603689C42FCD09B
:1033E000F3D9E41AF5E7B0BDB0B50A494143154831
:1033F0000368262206E0E41A051F2D686419A21846
:103400008A4206D21C4603689C42FCD0F3D9E41AD7
:10341000F5E7B0BD80380100B0B5502141430948FF
:103420000368262206E0E41A051F2D686419A21815
:103430008A4206D21C4603689C42FCD0F3D9E41AA7
:10344000F5E7B0BD18E000E0F0B581B002287FD00C
:10345000012800D09EE00220C0435E4B4E490C186C
:10346000FF263746F037E75D4C4967544C49675CA7
:103470004C4967544C49675C4C4967544C49675CFC
:103480004C4967544C49675C4C4967544C49675CEC
:103490004C4967544C49675C4C496754B727BF0097
:1034A000E519712189006118CA78EA70C97DE9754A
:1034B0004749615CE154401CD0D3374DE819FCF713
:1034C00025FEF721890068502F2000012818FCF7FD
:1034D0001DFE1F2149016850C12080002818FCF7FB
:1034E00015FEF921890068506320C0002818FCF7F8
:1034F0000DFE7D21C9006850CB2080002818FCF704
:1035000005FEFB21890068500D2080012818FCF77A
:10351000FDFD3F2109016850D52080002818FCF7E7
:10352000F5FDFD21890068506D20C0002818FCF7CA
:10353000EDFD7F21C9006850012080022F1839203D
:1035400000012C18B0002E18DF20800028181AE087
:10355000712081001048411803220B78C8240B55B4
:103560000B46C8330C7D1C75491C521EF5D13D21FC
:1035700009014718152149014418F321890046180B
:10358000A32189004018FCF7C1FD30602046FCF7FC
:10359000BDFD386001B0F0BD140820200703000015
:1035A000030200001B030000170200002F030000AD
:1035B0002B020000430300003F02000057030000FD
:1035C000530200006B030000670200007F0300004D
:1035D0007B02000093030000FFF72EFBFFF74CFE79
:1035E00016480822026016490A60164A1368012428
:1035F00023431360144A1368234313606204026078
:103600000A60A20402600A60FEF790FB00242046D4
:10361000FEF7F6FA2046FEF723FBFFF7ABFCFFF7B9
:1036200021FEFEF7A3F90220FEF716F87D20C00068
:10363000FFF7C4FEFFF77CFEFCE7C04680E200E037
:1036400000E100E0041886400498864070B501252A
:103650008A4C206800040BD4EE033220FFF7C4FE2E
:1036600020683042FCD03220FFF7BEFE284600E042
:1036700000202168C9030AD42E043220FFF7B4FECB
:1036800020683042FCD03220FFF7AEFE03202168D4
:1036900009010AD4ED063220FFF7A6FE2068284271
:1036A000FCD03220FFF7A0FE022070BD0178002977
:1036B00009D0054A1368DB07FCD19161431C4178AE
:1036C00000291846F6D1704708115040F0B581B076
:1036D000DF480168012906D100210160E04801802E
:1036E000DC48012101600124DB48006880011FD40F
:1036F000DA480068017800291AD14178002917D1E9
:103700008178002914D1C178002911D101790029CB
:103710000ED1417900290BD18179002908D1C079D6
:10372000002805D1CE480088012801D1CD48046089
:10373000660600255248405F8100CB4F785F884283
:1037400039DAC8490968012971D1C54BC8490A88C5
:10375000012A06D11A88012A03D180B20D80401CAB
:1037600038801F46C848C949FFF7E6FABA480068DA
:10377000304219D1B94800680178002914D1417844
:10378000002911D1817800290ED1C17800290BD1EF
:103790000179002908D14179002905D181790029D1
:1037A00002D1C079002866D0AE4805603D80A948A6
:1037B000046001B0F0BD814259D1AA4800680128D7
:1037C00035D1A74AAA480188012903D111880129C6
:1037D00000D10580AC48AD49FFF7AEFA9E480068BD
:1037E000304219D19D4800680178002914D14178F0
:1037F000002911D1817800290ED1C17800290BD17F
:103800000179002908D14179002905D18179002960
:1038100002D1C07900282ED09248056090480580DA
:103820008C4804603888401C388001B0F0BD904856
:10383000048090480068FCF7C9FE04468E48006882
:103840008E49FCF7C9FC06462146FCF76CFCFCF7E8
:10385000C8FE05468A48056020463146FCF7B4FCA0
:10386000FCF7BFFE014687480160284601E00020C2
:103870000146FFF761FA01B0F0BDC04680130A406F
:103880004E0D2020F0B581B071480168012904D1A6
:10389000704901220A600021016001246E4800681D
:1038A00080011FD46D480068017800291AD1417841
:1038B000002917D18178002914D1C178002911D1AC
:1038C000017900290ED1417900290BD18179002994
:1038D00008D1C079002805D161480088012801D1AC
:1038E00060480460660600255F4F785F5F4909689D
:1038F000890088424ADA5B490968012900D081E0E1
:103900005B490A88012A13D155490A88012A0FD137
:1039100082B24B239B005E49CC5055490D80511C0F
:103920003980022A04D880005AA10858FEF70CF802
:1039300055485649FFF700FA47480068304219D108
:10394000464800680178002914D14178002911D136
:10395000817800290ED1C17800290BD10179002985
:1039600008D14179002905D18179002902D1C07996
:1039700000286BD04B20800045490D503948056028
:10398000374805803348046001B0F0BD814259D109
:1039900034480068012835D1314A35480188012969
:1039A00003D11188012900D1058037483749FFF735
:1039B000C3F929480068304219D1284800680178C5
:1039C000002914D14178002911D1817800290ED124
:1039D000C17800290BD10179002908D1417900294A
:1039E00005D18179002902D1C07900282ED01D4847
:1039F00005601B480580174804603888401C3880E3
:103A000001B0F0BD1A4804801A480068FCF7DEFDDA
:103A10000446194800681949FCF7DEFB06462146B2
:103A2000FCF781FBFCF7DDFD0546154805602046E7
:103A30003146FCF7C9FBFCF7D4FD01461148016093
:103A4000284601E000200146FFF776F901B0F0BDFD
:103A50007C0020205C0D202080130A409000202054
:103A6000800020206C0D2020680D20208400202064
:103A70006A0D202078002020640D20200000C8421C
:103A8000A80020203405202018FCFFFFFC080000BF
:103A90001C0C2020F40100002C0100002003000079
:103AA000F0B581B071480168012904D17049012243
:103AB0000A600021016001246E48006880011FD463
:103AC0006D480068017800291AD14178002917D182
:103AD0008178002914D1C178002911D101790029F8
:103AE0000ED1417900290BD18179002908D1C07903
:103AF000002805D161480088012801D16048046090
:103B0000660600255F4F785F5F4909688900884233
:103B10004ADA5B490968012900D081E05B490A88DB
:103B2000012A13D155490A88012A0FD182B24B23A9
:103B30009B005E49CC5055490D80511C3980022AAA
:103B400004D880005AA10858FDF7FEFE5548564992
:103B5000FFF7F2F847480068304219D1464800683C
:103B60000178002914D14178002911D181780029E8
:103B70000ED1C17800290BD10179002908D14179F2
:103B8000002905D18179002902D1C07900286BD0A4
:103B90004B20800045490D50394805603748058065
:103BA0003348046001B0F0BD814259D13448006807
:103BB000012835D1314A35480188012903D11188BE
:103BC000012900D1058037483749FFF7B5F8294862
:103BD0000068304219D1284800680178002914D1C2
:103BE0004178002911D1817800290ED1C1780029AE
:103BF0000BD10179002908D14179002905D18179BA
:103C0000002902D1C07900282ED01D4805601B482C
:103C10000580174804603888401C388001B0F0BD2A
:103C20001A4804801A480068FCF7D0FC044619487A
:103C300000681949FCF7D0FA06462146FCF773FAEA
:103C4000FCF7CFFC05461548056020463146FCF7D9
:103C5000BBFAFCF7C6FC014611480160284601E0AA
:103C600000200146FFF768F801B0F0BD7C0020207D
:103C70005C0D202080130A4090002020800020202E
:103C80006C0D2020680D2020880020206A0D202047
:103C900078002020640D20200000C842A8002020C9
:103CA0003405202018FCFFFFFC0800001C0C20201D
:103CB000F401000058020000B00400007CB51D466D
:103CC00016460C0001D0611E00E000210191009019
:103CD000054B6A462946304600F0F4F8002C02D025
:103CE000009A002111707CBDFD4500002021020CCE
:103CF00001D010211046020A01D0104608390209ED
:103D000001D01046091F820801D01046891E4208C2
:103D100001D0881E7047081A70470000004870479D
:103D2000000020200000000002E008C8121F08C1A7
:103D3000002AFAD170470000704700000000000020
:103D4000002001E001C1121F002AFBD170470000D2
:103D5000F0B51FB486B00998089A030D00210243FC
:103D600014D05148514A181850430514119801288D
:103D700010981AD0281A401C00264D4F4D49009625
:103D800001910490002812DA444211E011980124B4
:103D900049A3012801D11098C1430698119A846063
:103DA0000360C26041600BB0F0BD4042E4E70446EE
:103DB000210500203F4A001C51410391029012E06E
:103DC000E00707D032463B4601990098FCF7F4FA29
:103DD0000191009032463B4610461946FCF7ECFA3A
:103DE00006460F466410002CEAD10498039B002875
:103DF000029A0999089806DAFCF7DEFA019B009A04
:103E0000FCF7DAFA05E0FCF73FFB019B009AFCF7B0
:103E10003BFB04460E460022284BFCF777FD03D8F7
:103E20000020C043014607E00022254B20463146D2
:103E3000FCF710FAFCF74AFD102409E0002C0ADB1D
:103E40000A220023FCF705FC079B30321A55641E3A
:103E500002460A43F2D11122641C079B121B1C1953
:103E6000119B012B03D0012308430ED10AE0084324
:103E700004D0112010900020119077E71098151AA7
:103E80006D1E0BE01098824202DD00236D1C03E0E2
:103E9000824201DA00236D1E002BEED006981199A4
:103EA0008260C16030C07EE701FCFFFF104D000062
:103EB000000014400000F03F300000000000F0431C
:103EC0000000E03FFFB597B00646002518E2252820
:103ED00077D100242746FD49049400E00443761C72
:103EE00032780120203A90400842F7D130782A28D1
:103EF0000ED00222307801463039092916D80499AB
:103F00000A235943303940181443761C0490F1E7D2
:103F1000189802C804911890002904DA012040037F
:103F200004434842049002200443761C30782E2833
:103F300014D1042004437078761C2A2809D11898DB
:103F4000761C80C8189009E00A214F43303FC719FA
:103F5000761C3078014630390929F5D930786C283B
:103F600010D006DC4C281AD068280ED06A2817D149
:103F700004E0742813D07A2812D110E00120400503
:103F800004430CE00121090501E0032109050C436C
:103F90007178814203D1012000052418761C761C1B
:103FA0003078119066280BD013DC58287DD009DCBE
:103FB00000287BD04528F6D04628F4D047281AD1CF
:103FC000A5E118E0632835D0642870D0652812D1A7
:103FD0009DE170286CD008DC6728F1D069287BD07F
:103FE0006E280DD06F2806D1BAE073282ED0752820
:103FF00071D0782859D01A9A199990476D1C7EE192
:104000006002400F022809D003280DD00428189818
:1040100001680DD00D60001D189070E11898EA1726
:1040200001680D604A60F6E7189801680D80F2E7B4
:104030000D70F0E718986A4601781172001D18900B
:104040000020507202A80090012005E0189802C8D4
:10405000189000200091C04361070DD5002101E0B8
:104060000199491C0191B94212DA8142F8DB009AA8
:10407000515C0029F4D10BE0002101E00199491CB9
:1040800001918142FADB019A0099895C0029F5D1FE
:10409000019904981A9B471A21463846199A00F04C
:1040A00097FA0199401945180BE04FE02CE113E015
:1040B0004EE0009800990078491C00911A9A1999CD
:1040C00090470198401E0190401CF2D1214638468D
:1040D0001A9B199A10E137E00A2000210090019103
:1040E0006002410F022907D0189A01CA1892C2171C
:1040F0009446032908D00AE01898C01DC108C900D9
:1041000005C91891944607E000B2C21794460429E5
:1041100002D140B2C1178C4600226146944506DAAE
:104120000A460021404291418C462D2102E02105A2
:1041300004D52B216A461173012103E0E10701D068
:104140002021F7E7029155E00A200AE0102008E05C
:10415000102000900021042004430191082703E06F
:1041600008200021019100906002410F022907D030
:10417000189A01CA189200229446032908D008E030
:104180001898C01DC108C90005C91891944603E0DC
:1041900080B2042900D1C0B200210291210729D5A3
:1041A0001199702906D0009A1021019B4A401A43A8
:1041B00005D00EE040216A461173012108E06146F6
:1041C000014306D030216A461173119951730221BF
:1041D0000291009A0821019B4A401A430AD1614684
:1041E000014301D1610705D530216A4611730121D0
:1041F0007F1E02911199582904D035A10E910DA965
:104200000D910DE037A1F9E76146019B009AFCF79B
:1042100020FA0E9B8C469B5C0D9A521E0D921370D9
:1042200061460143F0D10D9805A9081A203001908C
:10423000600703D501200004844300E001270198B2
:10424000874201DD381A00E00020019900904118F2
:10425000029809180498401A0490E00306D42146F5
:104260001A9B199A049800F0B3F94519002706E043
:1042700003A81A9AC05D199990476D1C7F1C02987B
:104280008742F5DBE0030CD521461A9B199A049866
:1042900000F09EF9451904E01A9A302019999047C8
:1042A0006D1C0099481E00900029F5DC08E00D986F
:1042B0000D990078491C0D911A9A199990476D1C17
:1042C0000199481E01900029F1DC63E109280100F1
:1042D000303132333435363738396162636465667C
:1042E000000000003031323334353637383941423E
:1042F000434445460000000000F05AF94519761C79
:104300003078002800D0E2E528461BB0F0BD6007F9
:1043100000D406271898C01DC108C90048680A685B
:104320000831C30FDB071891190001D09CA108E0E8
:10433000210501D59BA104E0E10701D09AA100E08D
:104340009AA1430011985B08109165280CD006DCF7
:10435000452809D046281DD0472841D141E066288C
:1043600018D067283CD13CE00021112F01DB11203F
:1043700000E0781C0191009008A911A8FFF7E8FC63
:10438000139905910021119A15927F1C129801979B
:10439000009150E00120C00703900120019008A97E
:1043A000009711A8FFF7D4FC139A149905920022E4
:1043B000119B009212981593059A0192002901D041
:1043C000104602E0791C40180190381A01D5019876
:1043D00004E04042401E0090781C0190C01B0290F7
:1043E00043E0012F00DA01270021112F01DD112008
:1043F00000E038460191009008A911A8FFF7A8FC39
:1044000013990591119A0021129815920091019724
:1044100021070CD40599B94201DB019900E0019113
:10442000012904DD159A491E515C302906D0B84295
:1044300001DA011D05DA0121029115E00199491EF9
:10444000EDE7002805DC0099411800910199091A4F
:1044500003E0019A411C914200DD01910099401A4C
:10446000401C02900120C0070390200706D4029947
:104470000198814202DB0020C0430290002069467F
:10448000C87707AF012103980337C907884224D0B2
:10449000022011902B201290039800280CDA404241
:1044A00003902D20129007E00A210398FCF7B2F840
:1044B00030317F1E039039701199481E11900029E8
:1044C000F2DC03980028EFD1791E1298087030783A
:1044D000202108404530BF1E387006A8C01BC01DF3
:1044E000039010980078002800D00120019941180D
:1044F0000298C0170918039809180498401A401E1A
:104500000490E00306D421461A9B199A049800F0FF
:104510005FF8451910980078002803D01A9A199965
:1045200090476D1CE00324D521461A9B199A0498E4
:1045300000F04EF845191CE00098002807DB0099B0
:104540000598884203DD1598405C199901E0199996
:1045500030201A9A904700986D1C401C00900298D9
:10456000401E0290002804D11A9A2E2019999047D3
:104570006D1C0199481E01900029DDDC05E03878AA
:104580001A9A7F1C199990476D1C0399481E039035
:104590000029F4DC21461A9B199A0498ACE6000025
:1045A0002D0000002B000000200000000000000093
:1045B000F8B5044600251E461746880404D405E0D5
:1045C00039462020B0476D1C641EF9D52846F8BD39
:1045D000FFB50446002581B01E46C80301D530272B
:1045E00000E02027880404D505E038460399B04749
:1045F0006D1C641EF9D5284605B0F0BD4A68002A36
:1046000006D00A68531C0B6010704868401E486052
:10461000704700404040404040404040414141419F
:104620004140404040404040404040404040404089
:10463000404040050202020202020202020202029D
:10464000020202202020202020202020200202021E
:104650000202020290909090909010101010101092
:104660001010101010101010101010101010020266
:1046700002020202888888888888080808080808D2
:1046800008080808080808080808080808080202B6
:10469000020240001346000000000000000000007D
:1046A000002F000000000700070000147F147F1493
:1046B00000242A7F2A120062640813230036495519
:1046C000225000000503000000001C2241000000F1
:1046D00041221C000014083E08140008083E080887
:1046E000000000A0600000080808080800006060E2
:1046F0000000002010080402003E5149453E000021
:10470000427F4000004261514946002141454B3102
:10471000001814127F10002745454539003C4A49CE
:104720004930000171090503003649494936000640
:104730004949291E000036360000000056360000A8
:104740000008142241000014141414140000412223
:10475000140800020151090600324959513E007CFB
:104760001211127C007F49494936003E41414122E5
:10477000007F4141221C007F49494941007F0909CE
:104780000901003E4149497A007F0808087F00007E
:10479000417F4100002040413F01007F0814224139
:1047A000007F40404040007F020C027F007F0408F1
:1047B000107F003E4141413E007F09090906003E4D
:1047C0004151215E007F0919294600464949493176
:1047D0000001017F0101003F4040403F001F204099
:1047E000201F003F4038403F006314081463000757
:1047F0000870080700615149454300007F414100AE
:1048000000552A552A55000041417F00000402014D
:10481000020400404040404000000102040000202B
:1048200054545478007F4844443800384444442069
:1048300000384444487F00385454541800087E0916
:1048400001020018A4A4A47C007F080404780000DE
:10485000447D4000004080847D00007F102844009B
:104860000000417F4000007C04180478007C0804AC
:10487000047800384444443800FC242424180018E8
:10488000242418FC007C08040408004854545420D4
:1048900000043F444020003C4040207C001C20405D
:1048A000201C003C4030403C004428102844001CA0
:1048B000A0A0A07C004464544C4414141414141498
:1048C0000000000000000000000000000000FC00EC
:1048D0000000000002000000000C020C02000000BA
:1048E0000000000090D0BCD0BC900003000300008A
:1048F0001824FE448C000302070201001824D8B0DB
:104900004C80000300010201C038E438E0000102DD
:104910000201020208060000000000000000000082
:10492000000000F80402000000010204000204F884
:1049300000000004020100009060F8609000000098
:10494000010000002020FC202000000001000000E9
:1049500000000000000008060000000020202020C9
:104960002000000000000000000000000000000225
:10497000000000000080601C020004030000000032
:10498000F8040404F8000102020201000008FC001F
:1049900000000002030200001884442418000302EF
:1049A0000202020008042424D800010202020100CD
:1049B00040B088FC80000000000302003C24242456
:1049C000C400010202020100F824242CC0000102EC
:1049D000020201000C04E41C0400000003000000BB
:1049E000D8242424D800010202020100384444449F
:1049F000F8000003020201000000100000000000A7
:104A0000020000000000200000000000060000007E
:104A10000020508804020000000001029090909055
:104A200090000000000000000002048850200002F6
:104A3000010000001804C424180000000200000057
:104A4000F804E494F80001020202020000E09CF085
:104A5000800002030000030204FC2424D8000203A7
:104A600002020100F80404040C0001020202010029
:104A700004FC0404F80002030202010004FC247494
:104A80000C0002030202030004FC24740C00020365
:104A900002000000F0080444CC40000102020100C2
:104AA00004FC2020FC040203000003020404FC04B4
:104AB0000400020203020200000404FC04040604D1
:104AC0000403000004FC24D00C04020302000302CF
:104AD00004FC04000000020302020203FC3CC03C90
:104AE000FC0003000300030004FC30C4FC040203C8
:104AF00002000300F8040404F800010202020100AD
:104B000004FC24241800020302000000F88484043A
:104B1000F80001020207050004FC24649800020367
:104B200002000302182424448C0003020202010044
:104B30000C04FC040C0000020302000004FC000052
:104B4000FC04000102020100047C80E01C0400005F
:104B5000030000001CE03CE01C0000030003000018
:104B6000049C609C0400020300030200041CE01C7F
:104B700004000002030200000C84641C0400020311
:104B8000020203000000FE0202000000070404000D
:104B9000000E30C00000000000010200000202FE12
:104BA00000000004040700000004020400000000EC
:104BB00000000000000000000000080808080808C5
:104BC0000000020000000000000000000040A0A063
:104BD000C00000010202030204FC2020C000000308
:104BE0000202010000C02020600000010202020059
:104BF00000C02024FC0000010202030200C0A0A0AB
:104C0000C0000001020202000020F8242404000277
:104C1000030202000040A0A0602000070A0A0A0464
:104C200004FC2020C0000203020003020020E40074
:104C30000000000203020000000020E40000080859
:104C40000807000004FC80E02020020302000302A9
:104C50000404FC000000020203020200E020E02045
:104C6000C00003000300030020E02020C000020376
:104C70000200030200C02020C00000010202010067
:104C800020E02020C000080F0A02010000C0202000
:104C9000E0000001020A0F0820E04020200002038B
:104CA000020000000060A0A0200000020202030039
:104CB0000020F820000000000102020020E0002097
:104CC000E00000010202030220E0208060200000DA
:104CD000030100006080E08060000003000300002A
:104CE00020608060200002030003020020E020809A
:104CF00060200808070100000020A06020000002DA
:104D000003020200000020DE020000000007040091
:104D1000000000FF00000000000F00000002DE2085
:104D20000000000407000000020102040402000069
:104D30000000000000000000000000000000000073
:104D400000000000000000F8000000000000003338
:104D50003000000000100C06100C060000000000DF
:104D60000000000040C07840C0784000043F0404C8
:104D70003F040400007088FC08300000001820FF89
:104D8000211E0000F008F000E018000000211C03C4
:104D90001E211E0000F00888700000001E21232440
:104DA0001927211010160E0000000000000000005E
:104DB00000000000000000E01804020000000007EE
:104DC0001820400000020418E000000000402018F5
:104DD00007000000404080F0804040000202010FC8
:104DE00001020200000000F0000000000101011FAC
:104DF00001010100000000000000000080B0700010
:104E0000000000000000000000000000000101019F
:104E1000010101010000000000000000003030002E
:104E20000000000000000000806018040060180608
:104E30000100000000E010080810E000000F102042
:104E400020100F00001010F8000000000020203F8C
:104E50002020000000700808088870000030282416
:104E600022213000003008888848300000182020B7
:104E700020110E000000C02010F8000000070424DC
:104E8000243F240000F80888880808000019212021
:104E900020110E0000E0108888180000000F11207B
:104EA00020110E0000380808C83808000000003F34
:104EB000000000000070880808887000001C222193
:104EC00021221C0000E010080810E0000000312240
:104ED00022110F00000000C0C000000000000030E0
:104EE0003000000000000080000000000000806032
:104EF00000000000000080402010080000010204B3
:104F00000810200040404040404040000404040499
:104F10000404040000081020408000000020100855
:104F200004020100007048080808F000000000308A
:104F300036010000C030C828E810E0000718272418
:104F400023140B000000C038E0000000203C2302C6
:104F50000227382008F8888888700000203F202029
:104F600020110E00C030080808083800071820205B
:104F70002010080008F808080810E000203F202052
:104F800020100F0008F88888E8081000203F202033
:104F90002320180008F88888E8081000203F200027
:104FA00003000000C030080808380000071820205F
:104FB000221E020008F808000008F808203F21011E
:104FC00001213F20000808F8080800000020203FC9
:104FD0002020000000000808F8080800C080808039
:104FE0007F00000008F888C028180800203F200132
:104FF0002638200008F8080000000000203F20208C
:105000002020300008F8F800F8F80800203F003FA2
:10501000003F200008F830C00008F808203F2000BA
:1050200007183F00E01008080810E0000F102020CB
:1050300020100F0008F808080808F000203F2101A0
:1050400001010000E01008080810E0000F182424F7
:1050500038504F0008F8888888887000203F20006A
:10506000030C302000708808080838000038202120
:1050700021221C00180808F8080818000000203F2A
:105080002000000008F808000008F808001F202091
:1050900020201F000878880000C838080000073862
:1050A0000E010000F80800F80008F800033C0700B3
:1050B000073C0300081868808068180820302C031B
:1050C000032C30200838C800C83808000000203FF2
:1050D0002000000010080808C838080020382621E1
:1050E00020201800000000FE020202000000007FE5
:1050F00040404000000C30C00000000000000001F3
:105100000638C00000020202FE00000000404040DD
:105110007F00000000000402020204000000000002
:10512000000000000000000000000000808080807F
:105130008080808000020204000000000000000067
:105140000000000000008080808000000019242200
:1051500022223F2008F8008080000000003F11203C
:1051600020110E000000008080800000000E112041
:1051700020201100000000808088F800000E11201F
:1051800020103F200000808080800000001F22222D
:1051900022221300008080F0888888180020203F99
:1051A000202000000000808080808000006B9494AC
:1051B0009493600008F8008080800000203F210068
:1051C00000203F2000809898000000000020203F31
:1051D00020200000000000809898000000C080801F
:1051E000807F000008F8000080808000203F2402BB
:1051F0002D302000000808F8000000000020203FAB
:10520000202000008080808080808000203F20005F
:105210003F20003F8080008080800000203F2100F0
:1052200000203F200000808080800000001F2020A0
:1052300020201F00808000808000000080FFA120CF
:1052400020110E000000008080808000000E1120E0
:1052500020A0FF80808080008080800020203F216F
:105260002000010000008080808080000033242422
:1052700024241900008080E0808000000000001FCE
:10528000202000008080000000808000001F20207F
:1052900020103F20808080000080808000010E3040
:1052A0000806010080800080008080800F300C03A1
:1052B0000C300F0000808000808080000020312EA4
:1052C0000E312000808080000080808080818E7080
:1052D0001806010000808080808080000021302C32
:1052E0002221300000000000807C0202000000004B
:1052F000003F404000000000FF00000000000000F0
:10530000FF0000000002027C800000000040403FDF
:105310000000000000060101020204040000000079
:10532000000000000000000000000000000000007D
:10533000000000000000000000000000000000006D
:1053400000000000000000000000000000F0F0F08D
:10535000000000000000000000017F0100000000CC
:1053600000000000001C1C1C000000000000806009
:10537000301C8C60301C0C0000000000000000009D
:10538000000000000000000000000000000000001D
:10539000000000E00000000000E000000086E69F42
:1053A00086868686E69F860000011F0101010101B5
:1053B0001F010100000080C06020F820E0C0000054
:1053C000000003070C18FF70E18100000000070FC8
:1053D00010107F100F070000806020608000000028
:1053E000E02000000F3020309F70DC371030C0000C
:1053F0000000100E03000718101807000000C0205E
:1054000020E0C0000000000080E01F38E88703C4EF
:105410003C040000070F1810100B070D10100800B7
:1054200000808C4C380000000000000000000000EC
:10543000000000000000000000000000000000006C
:105440000000000000000000000080E030080400C0
:105450000000000000FEFF0100000000000000004E
:105460000000030F1820400000040830E080000016
:10547000000000000000000001FFFE00000000002E
:10548000004020180F030000000000000000000092
:105490000000C00000000000004266663C18FF18D3
:1054A0003C666642000000000000030000000000AF
:1054B000000000000000800000000000001010103C
:1054C0001010FF101010101000000000000003006A
:1054D00000000000000000000000000000000000CC
:1054E00000000000000000000000000000808C4C64
:1054F0003800000000000000000000000000000074
:1055000000000000001010101010101010101000FB
:10551000000000000000000000000000000000008B
:10552000000000000000000000000000000000007B
:105530000000000000001C1C1C0000000000000017
:105540000000000000000000E0380C000000000037
:1055500080701C03000000000060380E0100000095
:1055600000000000000080C060202060C0800000BB
:1055700000FEFF010000000001FFFE000001070E19
:10558000181010180E0701000000808080C0E00095
:10559000000000000000000000FFFF00000000000D
:1055A00000001010101F1F1010100000008040207D
:1055B00020202060C08000000003030080402038CD
:1055C0001F070000001C1A1918181818181F0000CF
:1055D0000080C020202060C0800000000003030085
:1055E0001010182FE780000000070F10101010187F
:1055F0000F070000000000000000C0E0F000000005
:1056000000C0B088868180FFFF808000000000001D
:105610000010101F1F1010000000E060606060604C
:105620006060000000003F1008080818F0E000006B
:1056300000070B101010101C0F030000000080C0AA
:1056400040202020E0C0000000FCFF2110080808D6
:1056500018F0E0000001070C18101010080F0300EC
:105660000000C0E06060606060E060000000030077
:105670000000E0180700000000000000001F1F00ED
:10568000000000000080C0602020202060C080005A
:105690000087EF2C1818303068CF830000070F0800
:1056A00010101010180F07000000C0C0202020208C
:1056B000C0800000001F3F604040402010FFFE00FF
:1056C00000000C1C101010080F0300000000000068
:1056D000000000000000000000000000000E0E0EA0
:1056E0000000000000000000001C1C1C0000000066
:1056F00000000000000000000000000000000000AA
:10570000000C0C00000000000000000000583800F1
:105710000000000000000000000000804020100099
:10572000000010284482010000000000000000007A
:10573000000001020408100000000000000000004A
:105740000000000000848484848484848484840031
:105750000000000000000000000000000000102019
:1057600040800000000000000000000000000182F6
:10577000442810000000100804020100000000008E
:1057800000C020201010101030E0C0000003030003
:1057900000F010080C070300000000001C1C1C0097
:1057A00000000000000000C0406020202040C00039
:1057B00000FCFF01F00E03C1FE03807F0001070E15
:1057C00008111110110904020000000080E0E0003F
:1057D000000000000000807C4340477FF88000000C
:1057E00010181F1000000000131F1C1020E0E02004
:1057F00020202060C080000000FFFF101010101853
:105800002FE78000101F1F1010101010180F070036
:10581000000080C0402020202060E00000FCFF014C
:1058200000000000000001000001070E1810101019
:105830000804030020E0E02020202040C080000079
:1058400000FFFF000000000001FFFE00101F1F10FE
:10585000101018080E07010020E0E0202020202072
:105860002060800000FFFF101010107C000000007E
:10587000101F1F10101010101018060020E0E0205C
:10588000202020206060800000FFFF101010107C9E
:1058900000000100101F1F100000000000000000A9
:1058A000000080C06020202040E0000000FCFF01DC
:1058B00000004040C0C140400001070E1810101009
:1058C0000F0F000020E0E0200000000020E0E020BA
:1058D00000FFFF101010101010FFFF00101F1F100E
:1058E00000000000101F1F100000202020E0E0201A
:1058F000202000000000000000FFFF00000000006A
:1059000000001010101F1F101010000000000000F9
:10591000202020E0E020202000000000000000FF08
:10592000FF0000000060E0808080C07F3F0000003A
:1059300020E0E020000020A06020200000FFFF30D9
:10594000187CE3C000000000101F1F1000000113AE
:105950001F1C181020E0E0200000000000000000E4
:1059600000FFFF000000000000000000101F1F10DB
:10597000101010101018060020E0E0E000000000F9
:10598000E0E0E02000FF013FFEC0E01E01FFFF005D
:10599000101F1000031F0300101F1F1020E0E0C0A5
:1059A000000000000020E02000FF0003071C78E05A
:1059B0008000FF00101F100000000000030F1F00F8
:1059C000000080C060202060C080000000FEFF0159
:1059D0000000000000FFFE000001070E1810101864
:1059E0000C07010020E0E0202020202060C0800083
:1059F00000FFFF2020202020301F0F00101F1F104D
:105A00000000000000000000000080C06020206056
:105A1000C080000000FEFF010000000000FFFE004B
:105A20000001070E1111133C7C67210020E0E020EB
:105A30002020202060C0800000FFFF101030F0D038
:105A4000080F0700101F1F10000000030F1C10108C
:105A50000080C060202020204040E00000070F0CA4
:105A60001818303060E08100001F0C081010101072
:105A7000180F07008060202020E0E02020206080B8
:105A80000100000000FFFF00000000010000000016
:105A9000101F1F100000000020E0E02000000000A8
:105AA0000020E02000FFFF00000000000000FF00D9
:105AB00000070F1810101010100807002060E0E019
:105AC0002000000020E060200000077FF8800080B8
:105AD0007C03000000000000071F1C0700000000FE
